:1000000052C06CC06BC06AC069C068C067C066C0BF
:1000100065C064C063C062C061C060C05FC05EC0D4
:100020005DC05CC05BC05AC059C058C057C056C004
:1000300055C054C0AAC1BBC1BAC1B9C1B8C1ADC1D4
:10004000B6C1B5C1B4C1B3C1B2C1B1C1B0C1AFC114
:10005000AEC1ADC1ACC1ABC1AAC1A9C1A8C1A7C144
:10006000A6C197C19EC1A3C1A2C1A1C1A0C19FC188
:100070009EC19DC19CC19BC19AC199C198C18DC1AE
:1000800096C195C194C193C192C191C190C18FC1D4
:100090008EC18DC18CC18BC18AC189C188C187C104
:1000A00086C177C17EC111241FBECFEFD2E0DEBF73
:1000B000CDBF11E0A0E0B1E0E4E6F4E002C00590BD
:1000C0000D92A232B107D9F721E0A2E2B1E001C05E
:1000D0001D92A537B207E1F747D1C2C191CFFF9278
:1000E0000F931F93CF93DF93F62EEA01082F000F93
:1000F000802F67D1182F110F89F480E88F0D93D1CD
:10010000182F110F59F481E0800F82D1182F110F91
:1001100019F49BD1082F03C000E001C000E07AD1A0
:100120001883802FDF91CF911F910F91FF90089539
:10013000FF920F931F93CF93DF93F62E042FE901C5
:10014000880F3FD1182F110F51F480E88F0D6BD11C
:10015000182F110F21F4802F66D1182F110F5AD1AB
:100160001883DF91CF911F910F91FF9008951F93F6
:10017000CF93DF931F92CDB7DEB7198280917401C0
:100180008823A9F010E0E12FF0E0EE5DFE4F9E0124
:100190002F5F3F4F4081612F80917301C9DF1F5F47
:1001A00080917401181718F48981882361F3809174
:1001B0007201882399F18981811130C0AE014F5FAE
:1001C0005F4F66E0809173018ADF182F998191114A
:1001D00025C09E012F5F3F4F482F416066E0809110
:1001E0007301A6DF8981811119C0AE014F5F5F4F96
:1001F00061E08091730173DF86FF04C099819923C8
:10020000A1F30CC0412F4E7F8981811107C09E014F
:100210002F5F3F4F66E0809173018ADF8091740108
:10022000882399F08981811110C010E0AE014F5FE1
:100230005F4F612F8091730152DF1F5F80917401C6
:10024000181718F48981882389F389810F90DF9129
:10025000CF911F9108951092C50083E38093C4004D
:10026000E1ECF0E080818861808386E08093C200C9
:100270000895E0ECF0E0908195FFFDCF8093C600FB
:100280000895E0ECF0E080818823ECF78091C600CF
:100290000895CF93DF938FE39CE90197F1F700C0B6
:1002A00000008091C000882364F4C0ECD0E0E9DF56
:1002B0008FE39CE90197F1F700C000008881882353
:1002C000B4F3DF91CF9108951F93CF93DF93D9DFDC
:1002D000182F80937301D5DF80937201823040F430
:1002E000111F1127111F29F4CCDF8093740101C065
:1002F00011E090917401892F8F7E803211F080344B
:1003000099F4111112C0992381F0C0E0D1E0DC0F03
:10031000B8DFEC2FF0E0EE5DFE4F8083909174012A
:10032000D91718F4CD2FF2CF11E08FE39CE9019794
:10033000F1F700C000008091C000882314F4A9DF09
:1003400011E0812FDF91CF911F910895CF93DF931B
:10035000EC018881882329F021968BDF8991811116
:10036000FCCFDF91CF91089526D075DFC0ECD0E0AF
:1003700088818823ECF785DF90E0FC01FF97E93363
:10038000F105A8F4E65EFF4F099480E091E0DEDF1E
:10039000EFCF83E191E0DADFEBCF87E191E0D6DFC9
:1003A000E7CF92DF811101C0E2DE63DFE1CF71DFD1
:1003B00081E05FDFDDCF1092B90080E28093B8006A
:1003C000089594EA9093BC00ECEBF0E090819923BF
:1003D000ECF79091B900987F983011F09031A1F42A
:1003E0008093BB0084E88093BC00ECEBF0E080815C
:1003F0008823ECF79091B900987F983139F081E02B
:10040000903429F480E0089581E0089580E0089513
:10041000D8DF089584E98093BC00ECEBF0E08081A4
:1004200084FDFDCF08958093BB0084E88093BC00D9
:10043000ECEBF0E080818823ECF79091B900987F95
:1004400081E0983209F480E0089584E88093BC004C
:10045000ECEBF0E080818823ECF78091BB000895FD
:04046000F894FFCF3E
:10046400434443453958585F50524F4752414D4DCC
:10047400455200312E300033312E30332E3230319C
:02048400350041
:00000001FF
