:020000040000FA
:1000000000000000000010288B1005108510051658
:10001000DE01DF01DF14DD01DC01DC158B17202898
:10002000831285010730990090308B0083162D30A4
:1000300085002430950000308100831205161F28AA
:1000400083160514851083120B30A1000130A20025
:100050000430A3000F30A4000430A5000B30A6002C
:100060000530A7000730A8000F30A9000D30AA0006
:100070000630AB000130AC000E30AD000930AE00F0
:100080000830AF0083169B011C141A088312B200BB
:100090000A30B3000130B4000830B5000530B600B6
:1000A0000F30B7000130B800B9000E30BA0001308F
:1000B000BB000030BC000D30BD000E30BE000C3067
:1000C000BF00B530E221B1010518B1150230E221BF
:1000D00000000000051831140230E2210000000089
:1000E0000518B1140230E221000000000518311596
:1000F00083160510851483122730E2210000013099
:10010000303E840000000008A000A0102018A014B9
:1001100020162008850000000000000000001030BC
:1001200085001330E22100005D1805120000000078
:1001300005160518EC298518EC29840A0F300405EA
:10014000031D8228B920B920B9200230E221000025
:1001500000003718AF28831605108514B3288316BE
:10016000051485100000831237080F39031D8028FD
:100170007F284C210508DC002F08A000013EA107C4
:100180002208C0002108A207A20AA2092308C10070
:100190000F30A30540080F39A307A30A231A0B2920
:1001A0004108A4072508C0002408A5072608C100A7
:1001B00040080F39083EC000401E2607A60041082F
:1001C000013EA7072708013EA8072808013EA90706
:1001D0002908013EAA072A08013EAB072B08013E69
:1001E000AC072C08013EAD072D08013EAE072E08D6
:1001F000013EAF0720080F390F3EA0005D18051221
:100200000000000005160000000000000000201E95
:100210004B290000BE284108A3072408C00023087A
:10022000A4072508C10040080F39083EC000401E41
:100230002507A5004108013EA6072608013EA7079D
:100240002708013EA8072808013EA9072908013E02
:10025000AA072A08013EAB072B08013EAC072C0871
:10026000013EAD072D08013EAE072E08013EAF0747
:1002700020080F390F3EA00005100508DC1D0514ED
:10028000DE000508DF0005105D1805120516201EAA
:100290004B292008BE2808003F08B000013EB107E6
:1002A0003208C0003108B207B20AB2093308C100EF
:1002B0000F30B30540080F39B307B30A331A9B292F
:1002C0004108B4073508C0003408B5073608C10036
:1002D00040080F39083EC000401E3607B6004108EE
:1002E000013EB7073708013EB8073808013EB90795
:1002F0003908013EBA073A08013EBB073B08013EF8
:10030000BC073C08013EBD073D08013EBE073E0854
:10031000013EBF0730080F390F3EB0005D180512CF
:100320000000000005160000000000000000301E64
:100330004B2900004E294108B3073408C000330898
:10034000B4073508C10040080F39083EC000401E00
:100350003507B5004108013EB6073608013EB7072C
:100360003708013EB8073808013EB9073908013E91
:10037000BA073A08013EBB073B08013EBC073C08F0
:10038000013EBD073D08013EBE073E08013EBF07D6
:1003900030080F390F3EB000DE1CD329DF18D529F5
:1003A000DC19DA29092A0000000000000000000022
:1003B0000000DE2905125D1400000516301E4B29D1
:1003C00000004E29CF00CF0BE3290800CE00030127
:1003D000E221CE0BE82908003A30E621831603011A
:1003E0009B001C141A088312CD004D18F9290930FE
:1003F000FA29063083169A001C158B138B1BFD29D6
:1004000055309D00AA309D009C148B178312051255
:10041000082A8316051485148312051600000000AF
:0404200005120D2A8A
:02400E00D33F9E
:024200000900B3
:00000001FF
