:020000040000FA
:100000000000000000003128033087060428071094
:10001000871007110511303090008C0105180E284B
:10002000C401D101D201D301D401D701D901DE012C
:10003000DF01831600009B011C141A0883120000C4
:10004000D500D600D80003398719033AD000D00E66
:10005000851D53160230D8058C018E018F011014B6
:1000600046288312000085010730990000308B007C
:100070008316000029308500093087000030950084
:1000800080308100831200000511072840303322A0
:10009000000007150000000007118316000007107C
:1000A0008714831200000B30A1000130A20004303D
:1000B000A3000F30A4000430A5000B30A6000530CB
:1000C000A7000730A8000F30A9000D30AA000630A5
:1000D000AB000130AC000E30AD000930AE0008308E
:1000E000AF000F30B1000030B2000A30B300013071
:1000F000B4000830B5000530B6000F30B70001304D
:10010000B800B9000E30BA000130BB000030BC00AE
:100110000D30BD000E30BE000C30BF00BA302F22B3
:10012000B119071400000000071001302F22000051
:1001300000003118071400000000071001302F22C2
:1001400000000000B1180714000000000710013083
:100150002F220000000031190714000000000710D2
:1001600001302F228316000007148710831200002D
:1001700022302F22000000000130C3000130203E59
:100180008400000000080139A0002018A0145008C5
:10019000A00420088700000000000708C2005008E3
:1001A00087003C224418C20C04160008C206041240
:1001B0004218C314C31C0829D7105316D901D418E8
:1001C00059165D22840A0F300405031DC1280B2136
:1001D0000B210B213708C4000000000000000000C4
:1001E0003718F7288316000007148710FC28831699
:1001F00000000710871400008312000054155408F3
:1002000059048500431037080F39031DBF28BE2845
:1002100000000000E1289E21000000002F08A0003F
:10022000013EA1072208C0002108A207A20AA209D4
:100230002308C1000F30A30540080F39A307A30A04
:10024000231A5D294108A4072508C0002408A50732
:100250002608C10040080F39083EC000401E26078E
:10026000A6004108013EA7072708013EA807280865
:10027000013EA9072908013EAA072A08013EAB074B
:100280002B08013EAC072C08013EAD072D08013EAE
:10029000AE072E08013EAF0720080F390F3EA00021
:1002A000000000000000000000000000000000004E
:1002B0000000201E9D29000010294108A3072408E2
:1002C000C0002308A4072508C10040080F39083ED4
:1002D000C000401E2507A5004108013EA6072608CC
:1002E000013EA7072708013EA8072808013EA907E5
:1002F0002908013EAA072A08013EAB072B08013E48
:10030000AC072C08013EAD072D08013EAE072E08B4
:10031000013EAF0720080F390F3EA00087140708E1
:10032000DE000000871000000708DF00000000006A
:100330000000201E9D292008102908003F08B00059
:10034000013EB1073208C0003108B207B20AB20953
:100350003308C1000F30B30540080F39B307B30AA3
:10036000331AED294108B4073508C0003408B50731
:100370003608C10040080F39083EC000401E36074D
:10038000B6004108013EB7073708013EB8073808F4
:10039000013EB9073908013EBA073A08013EBB07DA
:1003A0003B08013EBC073C08013EBD073D08013E3D
:1003B000BE073E08013EBF0730080F390F3EB000B0
:1003C000000000000000000000000000000000002D
:1003D0000000301E9D290000A0294108B307340801
:1003E000C0003308B4073508C10040080F39083E83
:1003F000C000401E3507B5004108013EB60736086B
:10040000013EB7073708013EB8073808013EB90773
:100410003908013EBA073A08013EBB073B08013ED6
:10042000BC073C08013EBD073D08013EBE073E0833
:10043000013EBF0730080F390F3EB0005E18232A77
:100440005F1C252ACC2A00000000000000000000EC
:10045000000000000000301E9D290000A029CF00F0
:10046000CF0B302A0800CE0003012F22CE0B352AF5
:10047000080005180728392A431C4F2A2230040691
:10048000031D532A421C4A2A0000D7105912D410C7
:1004900009305B2AD7145916D41406305B2A0000A1
:1004A000000000000000000000000000000000004C
:1004B000000000005C2AB20008000508511C952AC3
:1004C0000000D10051187E2A0000521CE82AD201F7
:1004D0005608D500D800831600009A001C15553028
:1004E0009D00AA309D009C14831200000230D805A4
:1004F00010108C018E018F01101408000000000004
:10050000000000000C1CB82A10108C018E018F0115
:100510001014D60A05305619D6065608033987191D
:10052000033AD000D00E5214B62AD1005118B12A85
:100530000000000000000000000000000000531A4E
:10054000C82A0C1CBC2A8C01D30A531EC02A0330B3
:100550005506031DAD2A5708AF2A58080000D400DD
:10056000B62A8E018F018C011014B72A08000000F2
:10057000000000000000000000000000000000007B
:100580000000000000000000000000000000B62A8B
:10059000000000000000A72A83160000071487143B
:1005A00083120000DD015D150718DD1487185D1644
:1005B00005185D115D088500071CE32A20308719A6
:1005C000303A8700D22A10308719303A8700D22A71
:1005D000051110108E018F018C011014D101051826
:1005E00051140C1CEF2A511C0728D30110108E0146
:1005F0008F018C0110140C1CFB2A8C01D30A0A30C9
:080600005306031DFB2A072825
:02400E00D33F9E
:024200000100BB
:00000001FF
